S01E0000535749544348706173777264414C41524D434C4F434B2E73726563CA
S11300000C942A000C943F000C943F000C943F0085
S11300100C943F000C943F000C943F000C943F0060
S11300200C943F000C943F000C943F000C943F0050
S11300300C943F000C943F000C943F000C943F0040
S11300400C943F000C943F000C943F000C943F0030
S11300500C943F0011241FBECFE5D4E0DEBFCDBF1A
S113006010E0A0E6B0E0ECEAF6E002C005900D92E4
S1130070A63BB107D9F70E94AF010C9454030C942A
S1130080000089B38E3F41F489B38E3FE9F381E0E8
S113009088BB21E030E063C089B38D3F41F489B36C
S11300A08D3FE9F382E088BB22E030E058C089B399
S11300B08B3F41F489B38B3FE9F384E088BB23E0B1
S11300C030E04DC089B3873F41F489B3873FE9F3FA
S11300D088E088BB24E030E042C089B38F3E41F41D
S11300E089B38F3EE9F380E188BB25E030E037C077
S11300F089B38F3D41F489B38F3DE9F380E288BB36
S113010026E030E02CC089B38F3B41F489B38F3BA8
S1130110E9F380E488BB27E030E021C089B38F375E
S113012041F489B38F37E9F380E888BB28E030E0F5
S113013016C080B38E3F41F480B38E3FE9F381E073
S113014088BB29E030E00BC080B38D3F09F099CF24
S113015080B38D3FE9F382E088BB20E030E0822F5A
S1130160932F08959C01207F33272C5F25BBE9EF53
S1130170F0E03197F1F700C0000095B3945095BBBF
S11301808295807F8C5F85BB89EF90E00197F1F7C2
S113019000C0000085B3845085BB08959C01207F76
S11301A033272B5F25BBE9EFF0E03197F1F700C06F
S11301B0000025B3245025BB82959295907F982703
S11301C0807F98278B5F85BB89EF90E00197F1F7DB
S11301D000C0000085B3845085BB089580E690E09C
S11301E00E94B20084E090E00E94CE008EE090E095
S11301F00E94CE0081E190E00E94CE0081E190E077
S11302000E94CE0081E190E00E94CE008FE190E058
S11302100E94CE0082E090E00E94CE00089588E51E
S113022090E00E94B20084E090E00E94CE008EE054
S113023090E00E94CE0081E190E00E94CE0081E136
S113024090E00E94CE0081E190E00E94CE008FE118
S113025090E00E94CE0084E090E00E94CE000895D9
S113026080E590E00E94B20084E090E00E94CE001D
S11302708EE090E00E94CE0081E190E00E94CE00EA
S113028081E190E00E94CE0081E190E00E94CE00E6
S11302908FE190E00E94CE0088E090E00E94CE00C2
S11302A00895CF93DF93EC018881882339F0219658
S11302B090E00E94CE0089918111FACFDF91CF9115
S11302C008950F931F93CF93DF93EC01009761F58B
S11302D080E390E00E94CE0084E090E00E94B200AF
S11302E028C09E01ADECBCEC0E9448038C0116951D
S11302F0079516950795169507959801220F331FB4
S1130300C801880F991F880F991F880F991F820FA2
S1130310931F9E01281B390BC901C0960E94CE0071
S1130320E8012097F1F605C084E090E00E94B20055
S1130330D8CFDF91CF911F910F91089582E090E083
S11303400E94B20088E290E00E94B2008CE090E04B
S11303500E94B20086E090E00E94B2000895CF931C
S1130360DF93CDB7DEB72A970FB6F894DEBF0FBE82
S1130370CDBF1ABA8FEF87BB8BBB84BB11BA82BBCC
S11303800E949E010E9430010E940F010E94EE0013
S113039080E890E00E94B20080E690E00E94510163
S11303A02FE38DE093E0215080409040E1F700C0BE
S11303B0000081E090E00E94B200E3EFF1E03197A9
S11303C0F1F700C0000080E890E00E94B20088E6E7
S11303D090E00E94510100E010E014C09801220F47
S11303E0331F000F111F000F111F000F111F020FE9
S11303F0131F080F191F84EC90E00E94B200C8017B
S11304000E9461010E944100009741F7023DF4E01F
S11304101F0709F01AC181E090E00E94B20083EF47
S113042091E00197F1F700C0000080E890E00E949D
S1130430B20089E790E00E9451019FE7EAE1F6E00B
S11304409150E040F040E1F700C0000081E090E00E
S11304500E94B20083EF91E00197F1F700C0000021
S1130460A12CB12C212C312C2B823C822D823E825A
S11304702F82388629823A820F2EFAE04F2E512C91
S1130480F02D04C1F2E0AF16B10409F0C8C024E0B5
S11304908216910409F4F9C0CB80DC80C2C080E8E4
S11304A090E00E94B2008AE890E00E945101011598
S11304B01105D9F5E114F104C1F58FE890E00E942B
S11304C0B20082E090E00E94CE0083EF91E00197B9
S11304D0F1F700C000008FE890E00E94B20083E0D2
S11304E090E00E94CE00E3EFF1E03197F1F700C015
S11304F0000083EF91E00197F1F700C000008FE85E
S113050090E00E94B20084E090E00E94CE00E3EF0D
S1130510F1E03197F1F700C000008FE890E00E940D
S1130520B20080E290E00E94CE0082EC90E00E9453
S1130530B200C5010E94610181EE94E00197F1F7D8
S113054000C0000083EC90E00E94B200C4010E944D
S11305506101E1EEF4E03197F1F700C0000085ECB1
S113056090E00E94B200C6010E94610181EE94E015
S11305700197F1F700C0000086EC90E00E94B20001
S1130580C3010E946101E1EEF4E03197F1F700C08C
S1130590000088EC90E00E94B200C8010E94610152
S11305A081EE94E00197F1F700C0000089EC90E03F
S11305B00E94B200C7010E946101E3EFF1E03197AC
S11305C0F1F700C0000089859A8501979A87898789
S11305D0892B09F064CF9FEFE91AF90AEAE0EE16D5
S11305E0F10419F05A8649865ACF0F5F1F4F06301F
S11305F0110519F0E980FA80F5CFFFEF6F1A7F0A31
S11306002AE06216710419F00F811885F3CF8FEF79
S1130610C81AD80A96E0C916D10419F405C0CB80CB
S1130620DC806D807E80F0CFEFEF8E1A9E0AFAE0B8
S11306308F16910409F026CF2FEFA21AB20A83E095
S1130640A816B1041CF1510121C081E090E00E9480
S1130650B200E3EFF1E03197F1F700C0000080E869
S113066090E00E94B20086E990E00E945101FFE30D
S11306702DE083E0F15020408040E1F700C000000D
S11306808BEA90E00E945101BDCE51014101FACEA6
S1130690A29FB001B39FC001A39F01D0B29F700D70
S10F06A0811D1124911D0895F894FFCFD2
S11306AC57454C434F4D4500456E74657220746834
S11306BC65207061737772640050415353574F52E5
S11306CC44204D41544348454400414C41524D2033
S11306DC434C4F434B0050415353574F5244204EBD
S11306EC4F54204D41544348454400747279206161
S10906FC6761696E000055
S9030000FC
